:1007ED0054656D703D0020430D0A0054656D7065B4
:0807FD007261747572653A0027
:1008480075985053890F438920758DFD758BFDD29E
:040858008ED2992281
:10079E007C00AF03AE0212034A7C007D0A12034AAC
:0407AE00ED2430FF07
:0807B2008F993099FDC29922D4
:1006FE008B0E8A0F8910AB0EAA0FA9101202F26090
:10070E00130510E5107002050F14F91202F2FF1214
:05071E0007B280E22299
:08047B008F0B8E0A8D098C081D
:100483007BFF7A0779ED1206FEE4FFFEFDFCAB0B62
:10049300AA0AA909A8081201A9501A7F2D1207B2A6
:1004A300AF0BAE0AAD09AC081202228F0B8E0A8D78
:1004B300098C0880057F2B1207B2AF0BAE0AAD097A
:1004C300AC081202718E0C8F0D7F007E407D1C7C68
:1004D30046AB0BAA0AA909A8081200031202717CF1
:1004E300277D1012034AAB05AA04AE0CAF0D7C00A6
:1004F3007D6412034AEF2430FF1207B2AE0CAF0D36
:100503007C007D0A1207A4AE0CAF0D1207A77F2E45
:100513001207B27C037DE8AF03AE0212034AEF2455
:1005230030FF1207B27D6412079E7D0A12079EAE4A
:0F05330002AF031207A77BFF7A0779F30206FED8
:1005420012084812085C7BFF7A0779F87D017F0167
:100552001207231208917FE87E031208331206D392
:100562008F258E248D238C2212047BE4FFFEFDFC5A
:10057200AB25AA24A923A8221201A9501E7B2D7DF6
:10058200017F021208B4AF25AE24AD23AC221202C1
:10059200228F258E248D238C2280097B2B7D017F47
:1005A200021208B4AF25AE24AD23AC22120271AB05
:1005B20007AA06750C037D027F021207647B2E7D5B
:1005C200057F021208B47F007E407D1C7C46AB256D
:1005D200AA24A923A822120003120271E47B107A32
:1005E20027F9F81203DB750C047D067F02120764FB
:0305F200020555AA
:10083300EF1FAC0670011E4C600A7D027CEFDCFEEC
:04084300DDFC80EC6C
:01084700228E
:06088200C2A58F80D2A781
:080888007F027EEFDEFEDFFCC3
:010890002245
:0A08AA00C2A6120882C2A702088845
:10074600CFCDCFCECCCE12034A7C007D0A12034A0F
:04075600ED2430FF5F
:0A075A00D2A6120882C2A702088886
:10081D00AE07BE0104ED148006BE0209ED243F446F
:06082D0080FF1208AA2260
:10085C007F381208AA7F0C1208AA7F061208AA7FFA
:04086C00010208AAD3
:0A08B400AC0312081DAF0402075A3E
:060723008B088A09890A17
:1007290012081DE4FDAB08AA09A90A8D8275830088
:0C07390012030BFF600612075A0D80E946
:010745002291
:0C06A0007F0AEA24FFFDE434FFFC7E002A
:0806AC008E0D8F0E8C0F8D10D6
:1006B4007F017E00E4FBEBC39510E50F6480F874C2
:0E06C4008098500AAC0DAD0E1203380B80E882
:0106D2002205
:040764008A0A8B0B67
:1007680012081DAA0CEAD39400400D1206A0AC0A88
:08077800AD0B1207461A80EDDB
:010780002256
:1005F50012081DC3EA64809480400B7F2B12075AB2
:100605008A168B17800E7F2D12075AC3E49BF517A8
:10061500E49AF516AA15EAD39400400D1206A0AC8B
:0906250016AD171207461A80ED0C
:01062E0022A9
:04062F008A1A8B1B7D
:1006330012081DAA1CEAD3940040297F101206A2B7
:10064300AC1AAD1BCFCDCFCECCCE12034AEF540F95
:10065300FEC3940AEE5004243080022437FF1207AD
:040663005A1A80D1CE
:010667002270
:040668008A1F8B203A
:10066C0012081DAA21EAD394004028EA24FFFDE4D5
:10067C0034FFFC7F027E001206ACAC1FAD20CFCD48
:10068C00CFCECCCE12034AEF54012430FF12075ABE
:03069C001A80D2EF
:01069F002238
:0D0891001207BA7FCC1207D47F440207D4AF
:1006D3001207BA7FCC1207D47FBE1207D412078148
:1006E3008F08120781EFFEE508FFFDAC06EC12024E
:0B06F30038E4FBFA7980784102010C2A
:1007BA00D2B7C2B77FF7DFFED2B77F20DFFEA2B77C
:0907CA00E433FE7FF7DFFEAF0609
:0107D3002203
:10087000C2B77E04DEFEEF24FF92B77E18DEFED202
:01088000B7C0
:010881002254
:10080500C2B77F02DFFED2B77F02DFFEA2B7E433B5
:07081500FE7F18DFFEAF06B5
:01081C0022B9
:0207D400AD076F
:1007D600E4FC7401A804088002C333D8FC5DFF1250
:0607E60008700CBC08ECD9
:0107EC0022EA
:10078100E4FDFC120805EF600D7401A80408800265
:0C079100C333D8FC42050CBC08E9AF05DE
:01079D002239
:10000300EC4D6011E8497017ED33EC3304600DE4F7
:10001300FCFFFEFD22E933E8330470F80202DD122F
:1000230002A858046009E4CC248150062850090230
:1000330002E72840030202E4C0E0EB4A7044B980BF
:1000430006D0E0FB0202D3EF4E701CBD8008EBFF2D
:10005300EAFEE9FD80EBE98DF0A4FEE5F00200EC99
:10006300E9CDF9EAFEEBFFEF89F0A4FCE5F0CE89D8
:10007300F0A42EFFE435F0CD89F0A42DFEE435F095
:100083008067EF4E7005BD80D780C3EF8BF0A4ACC3
:10009300F0EE8BF0A42CFCE435F0F8EF8AF0A42CFE
:1000A300E5F038FCE433CB8DF0A42CFCE5F03BF811
:1000B300EE8AF0A42CFCE5F038F8E433CF89F0A401
:1000C3002CFCE5F038CF3400CE89F0A42FFFE5F007
:1000D3003EFEE433C98DF0A42EFEE5F039CD8AF05F
:1000E300A42FFFE5F03EFEE43DFD33D0E0FB5007D7
:1000F3000BBB000F0202E7EC2CFCEF33FFEE33FEE9
:06010300ED33FD0202BF16
:100109000202E7EC5D046005E8590470030202DDB0
:100119001202A8580460F6EC4860F2EC7004FDFE87
:10012900FF22C860DB2481C85009C39860025006C9
:100139000202E49850CAF582E9294B4A7005AB825C
:100149000202D375F0007C1A7880C3EF9BEE9AED1A
:1001590099400DC3EF9BFFEE9AFEED99FDE842F041
:10016900DC23ACF0D0E0FFD0E0FED0E0FDAB822094
:10017900E7101BEB60BAEC2CFCEF33FFEE33FEED1E
:1001890033FD0202BFE803F830E705C0F075F0005F
:10019900EF2FFFEE33FEED33FD40B830E7C280AA02
:1001A90074F8CC6480CCC86480C8F58204604FC3FD
:1001B900EB9FF5F0EA9E42F0E99D42F0E89C45F09C
:1001C900603C501DE5825FFFE582D313CB5BCBF426
:1001D9002B5582FB50280ABA002409B9002008804F
:1001E9001DE5825BFBE582D313CF5FCFF4C3132FE9
:1001F9005582FF50090EBE00050DBD00010CC3EB71
:100209009FF5F0EA9E42F0E99D42F0E89C45F060D6
:0902190007CC4820E701B3EC22F8
:10022200ED33EC33600A047003BD8004ECB2E7FCEA
:0102320022A9
:1002330075F020800E75F010800575F0087D007E46
:10024300007F003392D530D50312046DEC33401098
:10025300EF33FFEE33FEED33FDEC33FCD5F0ED224F
:0E026300E5F0247EA2D513CC92E7CDCEFF228B
:10027100EDD2E7CD33EC3392D524814006E4FFFE85
:10028100FDFC22FCE4CFCECDCC24E0501174FF80E4
:10029100EDC3CC13CCCD13CDCE13CECF13CF047081
:0702A100F030D5DE02046D10
:1002A800E9D2E7C933E833F892D5EDD2E7CD33EC9C
:0702B80033FC5002B2D52215
:1002BF00EC30E7100FBF000C0EBE00080DBD0004A0
:1002CF000BEB6014A2D5EB13FCED92E7FD2274FF4C
:1002DF00FCFDFEFF22E480F8A2D574FF13FC7D80A5
:0302EF00E480EFB9
:0300000002089E55
:0C089E00787FE4F6D8FD75812502054244
:1002F200BB010689828A83E0225002E722BBFE020A
:09030200E32289828A83E493223C
:10030B00BB010CE58229F582E5833AF583E02250A7
:10031B0006E92582F8E622BBFE06E92582F8E222F1
:0D032B00E58229F582E5833AF583E493220B
:10033800EF8DF0A4A8F0CF8CF0A428CE8DF0A42ED9
:02034800FE2293
:10034A00BC000BBE0029EF8DF084FFADF022E4CC97
:10035A00F875F008EF2FFFEE33FEEC33FCEE9DEC60
:10036A00984005FCEE9DFE0FD5F0E9E4CEFD22EDA6
:10037A00F8F5F0EE8420D21CFEADF075F008EF2FF0
:10038A00FFED33FD4007985006D5F0F222C398FDE1
:05039A000FD5F0EA227E
:10039F0075F008758200EF2FFFEE33FECD33CDCC15
:1003AF0033CCC58233C5829BED9AEC99E582984098
:1003BF000CF582EE9BFEED9AFDEC99FC0FD5F0D675
:1003CF00E4CEFBE4CDFAE4CCF9A88222B800C1B99F
:1003DF000059BA002DEC8BF084CFCECDFCE5F0CBDD
:1003EF00F97818EF2FFFEE33FEED33FDEC33FCEB16
:1003FF0033FB10D703994004EB99FB0FD8E5E4F9D1
:10040F00FA227818EF2FFFEE33FEED33FDEC33FCBD
:10041F00C933C910D7059BE99A4007EC9BFCE99AB1
:10042F00F90FD8E0E4C9FAE4CCFB2275F010EF2FF6
:10043F00FFEE33FEED33FDCC33CCC833C810D707F6
:10044F009BEC9AE899400AED9BFDEC9AFCE899F831
:0E045F000FD5F0DAE4CDFBE4CCFAE4C8F922C4
:0E046D00C3E49FFFE49EFEE49DFDE49CFC22A0
:00000001FF
